:100000000C9434000C9449000C9449000C94490061
:100010000C9449000C9449000C9449000C9449003C
:100020000C9449000C9449000C9449000C94EA008B
:100030000C9449000C9449000C9449000C9449001C
:100040000C9449000C9449000C9449000C9449000C
:100050000C9449000C9449000C9449000C944900FC
:100060000C9449000C94490011241FBECFEFD8E036
:10007000DEBFCDBF11E0A0E0B1E0EAE8FAE002C0E7
:1000800005900D92AC33B107D9F70E94FC000C9497
:1000900043050C9400009BB19F709BB99BB1829566
:1000A000807F982B9BB9299A299A299808951F93A4
:1000B000182F289A82958F700E944B00812F0E94E2
:1000C0004B0080E49FE10197F1F71F910895CF93D2
:1000D000DF93EC0102C00E94570089918823D9F771
:1000E000DF91CF9108951F93182F289882958F70D4
:1000F0000E944B00812F0E944B0080E49FE10197FA
:10010000F1F71F910895882319F4862F805802C0B3
:10011000862F80540E947300089584B1836084B94F
:100120008AB1806F8AB980E69AEE0197F1F780E391
:100130000E944B0080E29EE40197F1F780E30E9469
:100140004B0080EE91E00197F1F780E30E944B00B5
:1001500080E20E944B0080E49FE10197F1F788E282
:100160000E9473008FE00E9473000895882311F4A9
:10017000439801C0439A4598459A459808950F932E
:100180001F93082F162F862F82700E94B600812F92
:1001900081700E94B600802F82700E94B600802F6E
:1001A00081700E94B6001F910F910895A1E8B0E000
:1001B0008C9188608C93EFE6F0E080818260808390
:1001C0008FE39FE190938900809388008C918160F8
:1001D0008C9308951F920F920FB60F9211248F9354
:1001E0009F9385B190E1892785B99F918F910F9059
:1001F0000FBE0F901F901895AF92BF92CF92DF92D3
:10020000EF92FF920F931F93DF93CF93CDB7DEB79B
:100210002C970FB6F894DEBF0FBECDBF0E948D00A5
:100220000E943602249A87B1886287B90E94D6005C
:1002300078948DB79EB708970FB6F8949EBF0FBEFF
:100240008DBFEDB7FEB731968E010F5F1F4FADB773
:10025000BEB712961C930E9311973CE0C32ED12C7F
:10026000D382C28220E0E22E21E0F22EF582E482E7
:1002700083E091E0978386830E945E028DB79EB7EC
:1002800008960FB6F8949EBF0FBE8DBF80E060E069
:100290000E948300C8010E946700ADB7BEB71897DF
:1002A0000FB6F894BEBF0FBEADBFEDB7FEB7319627
:1002B00012961C930E931197D382C282F582E48228
:1002C0008FE091E0978386830E945E028DB79EB790
:1002D00008960FB6F8949EBF0FBE8DBF81E060E018
:1002E0000E948300C8010E94670080E197E220E934
:1002F00031E0F9013197F1F70197D9F781E00E94D8
:10030000730080E060E00E9483008BE191E00E9436
:10031000670081E060E00E9483008BE291E00E9430
:10032000670010E000E0EE24E39493E0F92E80E90A
:10033000A82E81E0B82E01C0EE2480E00E94470282
:10034000C82E93E19817F8F01230E8F41F9DB00121
:100350001124695F81E00E94830080E20E945700BF
:100360001F5F1F9DB0011124695F81E00E9483001F
:100370008EE30E94570080ED97E0F5013197F1F789
:100380000197D9F722C08C2D8958873200F51123A7
:10039000F1F01F9DB0011124695F81E00E9483008C
:1003A00080E20E94570011501F9DB0011124695F27
:1003B00081E00E9483008EE30E94570080ED97E069
:1003C000F5013197F1F70197D9F7EE24E3948C2DDD
:1003D00080528732F8F40230E8F40F9DB001112406
:1003E000695F80E00E94830080E20E9457000F5FF7
:1003F0000F9DB0011124695F80E00E9483008EE3AD
:100400000E94570080ED97E0F5013197F1F70197D1
:10041000D9F727C0AEEACA0EB6E2BC15F8F0002341
:10042000E9F00F9DB0011124695F80E00E94830014
:1004300080E20E94570001500F9DB0011124695FB6
:1004400080E00E9483008EE30E94570080ED97E0D9
:10045000F5013197F1F70197D9F703C0EE2009F4C0
:100460006BCF802F612F0E94BF0066CFECE7F0E0DA
:1004700080818064808380818F77808380818062A7
:100480008083EAE7F0E08081876880830895909117
:100490007C00907F90937C0090917C008F70892BE2
:1004A00080937C0080917A00806480937A008091B0
:1004B0007A0086FDFCCF809179000895AEE0B0E02F
:1004C000E4E6F2E00C941A050D891E898F89988D57
:1004D00097FF02C080E090E801979E838D831A8386
:1004E000098386E08C839E01255E3F4FCE010196F5
:1004F000698D7A8DA9010E948F024D815E8157FD21
:100500000AC02F813885421753070CF49A01020F55
:10051000131FF80110822E96E4E00C943605ABE030
:10052000B0E0E5E9F2E00C940C053C012B015A0126
:10053000FC0117821682838181FD03C06FEF7FEF7C
:10054000C6C19AE0892E1E010894211C311CF301BA
:100550002381F20123FD859123FF81912F018823BF
:1005600009F4B2C1853239F423FD859123FF8191CD
:100570002F01853229F490E0B3010E948204E7CF75
:10058000982FFF24EE249924FFE1FF15D0F09B3231
:1005900069F09C3228F4903259F0933291F40EC0F5
:1005A0009D3249F0903369F441E024C052E0F52ACD
:1005B00084E0F82A28C098E0F92A25C0E0E1FE2A64
:1005C00022C0F7FC29C0892F80538A3070F4F6FED0
:1005D00005C0989C902C1124980E15C0E89CE02C26
:1005E0001124E80EF0E2FF2A0EC09E3229F4F6FC38
:1005F0006BC140E4F42A07C09C3619F450E8F52A90
:1006000002C0983649F4F20123FD959123FF9191A0
:100610002F01992309F0B8CF892F8554833018F022
:100620008052833038F444E050E0A40EB51E5FE3FE
:1006300059830FC0933631F0933779F0933509F031
:1006400056C020C0F5018081898342E050E0A40EAD
:10065000B51E610101E010E012C0F501C080D1803B
:10066000F6FC03C06FEF7FEF02C0692D70E042E03F
:1006700050E0A40EB51EC6010E9477048C015FE70E
:10068000F52214C0F501C080D180F6FC03C06FEFE5
:100690007FEF02C0692D70E042E050E0A40EB51E6D
:1006A000C6010E946C048C0150E8F52AF3FE07C0D5
:1006B0001AC080E290E0B3010E948204EA948E2D79
:1006C00090E008171907A8F30EC0F601F7FC859112
:1006D000F7FE81916F0190E0B3010E948204E11066
:1006E000EA94015010400115110579F7EAC09436DB
:1006F00011F0993669F5F7FE08C0F50120813181C6
:100700004281538184E090E00AC0F50180819181AB
:100710009C01442737FD4095542F82E090E0A80EBD
:10072000B91E9FE6F92257FF09C0509540953095B4
:1007300021953F4F4F4F5F4FE0E8FE2ACA01B901B4
:10074000A1012AE030E00E94AE04D82ED21840C0A9
:10075000953729F41F2D1F7E2AE030E01DC01F2D84
:10076000197F9F3661F0903720F4983509F0ACC0BE
:100770000FC0903739F0983709F0A6C004C028E0C0
:1007800030E00AC0106114FD146020E130E004C0C4
:1007900014FD166020E132E017FF08C0F50160810A
:1007A00071818281938144E050E008C0F50180812D
:1007B0009181BC0180E090E042E050E0A40EB51EC3
:1007C000A1010E94AE04D82ED2188FE7F82EF12294
:1007D000F6FE0BC05EEFF522D91438F4F4FE07C024
:1007E000F2FC05C08FEEF82202C01D2D01C0192DAC
:1007F000F4FE0DC0FE01ED0DF11D8081803319F472
:1008000099EEF92208C01F5FF2FE05C003C08F2DCC
:10081000867809F01F5F0F2DF3FC14C0F0FE0FC0A7
:100820001E1510F09D2C0BC09D2C9E0C911A1E2D98
:1008300006C080E290E0B3010E9482041F5F1E1593
:10084000C0F304C01E1510F4E11A01C0EE2404FF29
:100850000FC080E390E0B3010E94820402FF1DC03C
:1008600001FD03C088E790E00EC088E590E00BC072
:10087000802F867891F001FF02C08BE201C080E2F8
:10088000F7FC8DE290E0B3010E94820406C080E391
:1008900090E0B3010E9482049A94D914C0F3DA94D0
:1008A000F101ED0DF11D808190E0B3010E94820401
:1008B000DD20A9F706C080E290E0B3010E94820427
:1008C000EA94EE20C1F743CEF30166817781CB0134
:1008D0002B96E2E10C942805FC01059061507040D4
:1008E0000110D8F7809590958E0F9F1F0895FC01F9
:1008F0006150704001900110D8F7809590958E0F4F
:100900009F1F08950F931F93CF93DF938C01EB01EB
:100910008B8181FF1BC082FF0DC02E813F818C81A6
:100920009D812817390764F4E881F9810193F983DF
:10093000E88306C0E885F985802F0995892B31F475
:100940008E819F8101969F838E8302C00FEF1FEFE0
:10095000C801DF91CF911F910F910895FA01AA2745
:10096000283051F1203181F1E8946F936E7F6E5FF2
:100970007F4F8F4F9F4FAF4FB1E03ED0B4E03CD0A0
:10098000670F781F891F9A1FA11D680F791F8A1F83
:10099000911DA11D6A0F711D811D911DA11D20D0EA
:1009A00009F468943F912AE0269F11243019305DA4
:1009B0003193DEF6CF010895462F4770405D419395
:1009C000B3E00FD0C9F7F6CF462F4F70405D4A33E2
:1009D00018F0495D31FD4052419302D0A9F7EACFAA
:1009E000B4E0A6959795879577956795BA95C9F7D9
:1009F00000976105710508959B01AC010A2E0694CC
:100A00005795479537952795BA95C9F7620F731F84
:100A1000841F951FA01D08952F923F924F925F92C1
:100A20006F927F928F929F92AF92BF92CF92DF92FE
:100A3000EF92FF920F931F93CF93DF93CDB7DEB763
:100A4000CA1BDB0B0FB6F894DEBF0FBECDBF0994F7
:100A50002A88398848885F846E847D848C849B844E
:100A6000AA84B984C884DF80EE80FD800C811B815C
:100A7000AA81B981CE0FD11D0FB6F894DEBF0FBE8B
:0A0A8000CDBFED010895F894FFCFFB
:100A8A002573004545313039204C61622039004ACE
:100A9A0061736F6E204A6F736869004C6576656C86
:100AAA003A203E4420204D20204200436F6C6F7252
:0C0ABA003A203E5220204720204200003D
:00000001FF
